{
  "contractName": "PatientDataManagement",
  "abi": [
    {
      "inputs": [],
      "stateMutability": "nonpayable",
      "type": "constructor"
    },
    {
      "anonymous": false,
      "inputs": [
        {
          "indexed": true,
          "internalType": "address",
          "name": "doctorAddress",
          "type": "address"
        },
        {
          "indexed": false,
          "internalType": "string",
          "name": "name",
          "type": "string"
        }
      ],
      "name": "DoctorRegistered",
      "type": "event"
    },
    {
      "anonymous": false,
      "inputs": [
        {
          "indexed": true,
          "internalType": "address",
          "name": "patientAddress",
          "type": "address"
        },
        {
          "indexed": false,
          "internalType": "string",
          "name": "record",
          "type": "string"
        }
      ],
      "name": "MedicalRecordAdded",
      "type": "event"
    },
    {
      "anonymous": false,
      "inputs": [
        {
          "indexed": true,
          "internalType": "address",
          "name": "patientAddress",
          "type": "address"
        },
        {
          "indexed": false,
          "internalType": "string",
          "name": "name",
          "type": "string"
        },
        {
          "indexed": false,
          "internalType": "uint256",
          "name": "registeredAt",
          "type": "uint256"
        }
      ],
      "name": "PatientRegistered",
      "type": "event"
    },
    {
      "inputs": [],
      "name": "admin",
      "outputs": [
        {
          "internalType": "address",
          "name": "",
          "type": "address"
        }
      ],
      "stateMutability": "view",
      "type": "function",
      "constant": true
    },
    {
      "inputs": [
        {
          "internalType": "address",
          "name": "",
          "type": "address"
        }
      ],
      "name": "doctors",
      "outputs": [
        {
          "internalType": "address",
          "name": "doctorAddress",
          "type": "address"
        },
        {
          "internalType": "string",
          "name": "name",
          "type": "string"
        },
        {
          "internalType": "string",
          "name": "specialization",
          "type": "string"
        },
        {
          "internalType": "bool",
          "name": "isVerified",
          "type": "bool"
        }
      ],
      "stateMutability": "view",
      "type": "function",
      "constant": true
    },
    {
      "inputs": [
        {
          "internalType": "address",
          "name": "",
          "type": "address"
        }
      ],
      "name": "patients",
      "outputs": [
        {
          "internalType": "address",
          "name": "patientAddress",
          "type": "address"
        },
        {
          "internalType": "string",
          "name": "name",
          "type": "string"
        },
        {
          "internalType": "uint256",
          "name": "age",
          "type": "uint256"
        },
        {
          "internalType": "uint256",
          "name": "registeredAt",
          "type": "uint256"
        }
      ],
      "stateMutability": "view",
      "type": "function",
      "constant": true
    },
    {
      "inputs": [
        {
          "internalType": "string",
          "name": "_name",
          "type": "string"
        },
        {
          "internalType": "uint256",
          "name": "_age",
          "type": "uint256"
        }
      ],
      "name": "registerPatient",
      "outputs": [],
      "stateMutability": "nonpayable",
      "type": "function"
    },
    {
      "inputs": [
        {
          "internalType": "address",
          "name": "_doctorAddress",
          "type": "address"
        },
        {
          "internalType": "string",
          "name": "_name",
          "type": "string"
        },
        {
          "internalType": "string",
          "name": "_specialization",
          "type": "string"
        }
      ],
      "name": "registerDoctor",
      "outputs": [],
      "stateMutability": "nonpayable",
      "type": "function"
    },
    {
      "inputs": [
        {
          "internalType": "address",
          "name": "_doctorAddress",
          "type": "address"
        }
      ],
      "name": "verifyDoctor",
      "outputs": [],
      "stateMutability": "nonpayable",
      "type": "function"
    },
    {
      "inputs": [
        {
          "internalType": "address",
          "name": "_doctorAddress",
          "type": "address"
        }
      ],
      "name": "authorizeDoctor",
      "outputs": [],
      "stateMutability": "nonpayable",
      "type": "function"
    },
    {
      "inputs": [
        {
          "internalType": "address",
          "name": "_patientAddress",
          "type": "address"
        },
        {
          "internalType": "string",
          "name": "_record",
          "type": "string"
        }
      ],
      "name": "addMedicalRecord",
      "outputs": [],
      "stateMutability": "nonpayable",
      "type": "function"
    },
    {
      "inputs": [
        {
          "internalType": "address",
          "name": "_patientAddress",
          "type": "address"
        }
      ],
      "name": "getPatientRecords",
      "outputs": [
        {
          "internalType": "string",
          "name": "patientName",
          "type": "string"
        },
        {
          "internalType": "uint256",
          "name": "patientAge",
          "type": "uint256"
        },
        {
          "internalType": "uint256",
          "name": "registeredAt",
          "type": "uint256"
        },
        {
          "internalType": "string[]",
          "name": "medicalRecords",
          "type": "string[]"
        },
        {
          "components": [
            {
              "internalType": "address",
              "name": "doctorAddress",
              "type": "address"
            },
            {
              "internalType": "string",
              "name": "name",
              "type": "string"
            },
            {
              "internalType": "string",
              "name": "specialization",
              "type": "string"
            },
            {
              "internalType": "bool",
              "name": "isVerified",
              "type": "bool"
            }
          ],
          "internalType": "struct PatientDataManagement.Doctor[]",
          "name": "authorizedDoctors",
          "type": "tuple[]"
        }
      ],
      "stateMutability": "view",
      "type": "function",
      "constant": true
    },
    {
      "inputs": [
        {
          "internalType": "address",
          "name": "_patientAddress",
          "type": "address"
        }
      ],
      "name": "getAuthorizedDoctorNames",
      "outputs": [
        {
          "internalType": "string[]",
          "name": "doctorNames",
          "type": "string[]"
        }
      ],
      "stateMutability": "view",
      "type": "function",
      "constant": true
    },
    {
      "inputs": [],
      "name": "getAllPatients",
      "outputs": [
        {
          "components": [
            {
              "internalType": "address",
              "name": "patientAddress",
              "type": "address"
            },
            {
              "internalType": "string",
              "name": "name",
              "type": "string"
            },
            {
              "internalType": "uint256",
              "name": "age",
              "type": "uint256"
            },
            {
              "internalType": "string[]",
              "name": "medicalRecords",
              "type": "string[]"
            },
            {
              "components": [
                {
                  "internalType": "address",
                  "name": "doctorAddress",
                  "type": "address"
                },
                {
                  "internalType": "string",
                  "name": "name",
                  "type": "string"
                },
                {
                  "internalType": "string",
                  "name": "specialization",
                  "type": "string"
                },
                {
                  "internalType": "bool",
                  "name": "isVerified",
                  "type": "bool"
                }
              ],
              "internalType": "struct PatientDataManagement.Doctor[]",
              "name": "authorizedDoctors",
              "type": "tuple[]"
            },
            {
              "internalType": "uint256",
              "name": "registeredAt",
              "type": "uint256"
            }
          ],
          "internalType": "struct PatientDataManagement.Patient[]",
          "name": "",
          "type": "tuple[]"
        }
      ],
      "stateMutability": "view",
      "type": "function",
      "constant": true
    },
    {
      "inputs": [],
      "name": "getVerifiedDoctors",
      "outputs": [
        {
          "components": [
            {
              "internalType": "address",
              "name": "doctorAddress",
              "type": "address"
            },
            {
              "internalType": "string",
              "name": "name",
              "type": "string"
            },
            {
              "internalType": "string",
              "name": "specialization",
              "type": "string"
            },
            {
              "internalType": "bool",
              "name": "isVerified",
              "type": "bool"
            }
          ],
          "internalType": "struct PatientDataManagement.Doctor[]",
          "name": "",
          "type": "tuple[]"
        }
      ],
      "stateMutability": "view",
      "type": "function",
      "constant": true
    },
    {
      "inputs": [],
      "name": "getDoctors",
      "outputs": [
        {
          "components": [
            {
              "internalType": "address",
              "name": "doctorAddress",
              "type": "address"
            },
            {
              "internalType": "string",
              "name": "name",
              "type": "string"
            },
            {
              "internalType": "string",
              "name": "specialization",
              "type": "string"
            },
            {
              "internalType": "bool",
              "name": "isVerified",
              "type": "bool"
            }
          ],
          "internalType": "struct PatientDataManagement.Doctor[]",
          "name": "",
          "type": "tuple[]"
        }
      ],
      "stateMutability": "view",
      "type": "function",
      "constant": true
    }
  ],
  "bytecode": "0x608060405234801561001057600080fd5b5033600260006101000a81548173ffffffffffffffffffffffffffffffffffffffff021916908373ffffffffffffffffffffffffffffffffffffffff16021790555061410d806100616000396000f3fe608060405234801561001057600080fd5b50600436106100cf5760003560e01c806353d08ef41161008c578063b13d5d9411610066578063b13d5d941461021a578063cb711cd714610238578063d80cb05c14610268578063f851a44014610284576100cf565b806353d08ef4146101af57806358c9202c146101cb578063a9583c22146101e7576100cf565b80630869cfbc146100d457806308d7c4c81461010757806318a231a91461012557806318bd4847146101435780632de304ed146101775780633a9b131c14610193575b600080fd5b6100ee60048036038101906100e991906131d7565b6102a2565b6040516100fe9493929190613aff565b60405180910390f35b61010f61037a565b60405161011c9190613b6d565b60405180910390f35b61012d610940565b60405161013a9190613b8f565b60405180910390f35b61015d600480360381019061015891906131d7565b610f86565b60405161016e959493929190613c03565b60405180910390f35b610191600480360381019061018c91906132d3565b6114b4565b005b6101ad60048036038101906101a89190613200565b6116dd565b005b6101c960048036038101906101c49190613254565b611884565b005b6101e560048036038101906101e091906131d7565b611b64565b005b61020160048036038101906101fc91906131d7565b612017565b6040516102119493929190613aac565b60405180910390f35b610222612184565b60405161022f9190613b6d565b60405180910390f35b610252600480360381019061024d91906131d7565b612597565b60405161025f9190613b4b565b60405180910390f35b610282600480360381019061027d91906131d7565b612c89565b005b61028c612e08565b6040516102999190613a91565b60405180910390f35b60006020528060005260406000206000915090508060000160009054906101000a900473ffffffffffffffffffffffffffffffffffffffff16908060010180546102eb90613f90565b80601f016020809104026020016040519081016040528092919081815260200182805461031790613f90565b80156103645780601f1061033957610100808354040283529160200191610364565b820191906000526020600020905b81548152906001019060200180831161034757829003601f168201915b5050505050908060020154908060050154905084565b60606000805b6004805490508110156104685760016000600483815481106103cb577f4e487b7100000000000000000000000000000000000000000000000000000000600052603260045260246000fd5b9060005260206000200160009054906101000a900473ffffffffffffffffffffffffffffffffffffffff1673ffffffffffffffffffffffffffffffffffffffff1673ffffffffffffffffffffffffffffffffffffffff16815260200190815260200160002060030160009054906101000a900460ff161561045557818061045190613fc2565b9250505b808061046090613fc2565b915050610380565b5060008167ffffffffffffffff8111156104ab577f4e487b7100000000000000000000000000000000000000000000000000000000600052604160045260246000fd5b6040519080825280602002602001820160405280156104e457816020015b6104d1612f89565b8152602001906001900390816104c95790505b5090506000805b600480549050811015610936576001600060048381548110610536577f4e487b7100000000000000000000000000000000000000000000000000000000600052603260045260246000fd5b9060005260206000200160009054906101000a900473ffffffffffffffffffffffffffffffffffffffff1673ffffffffffffffffffffffffffffffffffffffff1673ffffffffffffffffffffffffffffffffffffffff16815260200190815260200160002060030160009054906101000a900460ff16156109235760016000600483815481106105ef577f4e487b7100000000000000000000000000000000000000000000000000000000600052603260045260246000fd5b9060005260206000200160009054906101000a900473ffffffffffffffffffffffffffffffffffffffff1673ffffffffffffffffffffffffffffffffffffffff1673ffffffffffffffffffffffffffffffffffffffff1681526020019081526020016000206040518060800160405290816000820160009054906101000a900473ffffffffffffffffffffffffffffffffffffffff1673ffffffffffffffffffffffffffffffffffffffff1673ffffffffffffffffffffffffffffffffffffffff1681526020016001820180546106c590613f90565b80601f01602080910402602001604051908101604052809291908181526020018280546106f190613f90565b801561073e5780601f106107135761010080835404028352916020019161073e565b820191906000526020600020905b81548152906001019060200180831161072157829003601f168201915b5050505050815260200160028201805461075790613f90565b80601f016020809104026020016040519081016040528092919081815260200182805461078390613f90565b80156107d05780601f106107a5576101008083540402835291602001916107d0565b820191906000526020600020905b8154815290600101906020018083116107b357829003601f168201915b505050505081526020016003820160009054906101000a900460ff16151515158152505083838151811061082d577f4e487b7100000000000000000000000000000000000000000000000000000000600052603260045260246000fd5b602002602001018190525060048181548110610872577f4e487b7100000000000000000000000000000000000000000000000000000000600052603260045260246000fd5b9060005260206000200160009054906101000a900473ffffffffffffffffffffffffffffffffffffffff168383815181106108d6577f4e487b7100000000000000000000000000000000000000000000000000000000600052603260045260246000fd5b60200260200101516000019073ffffffffffffffffffffffffffffffffffffffff16908173ffffffffffffffffffffffffffffffffffffffff1681525050818061091f90613fc2565b9250505b808061092e90613fc2565b9150506104eb565b5081935050505090565b6060600060038054905067ffffffffffffffff811115610989577f4e487b7100000000000000000000000000000000000000000000000000000000600052604160045260246000fd5b6040519080825280602002602001820160405280156109c257816020015b6109af612fc9565b8152602001906001900390816109a75790505b50905060005b600380549050811015610f7e5760008060038381548110610a12577f4e487b7100000000000000000000000000000000000000000000000000000000600052603260045260246000fd5b9060005260206000200160009054906101000a900473ffffffffffffffffffffffffffffffffffffffff1673ffffffffffffffffffffffffffffffffffffffff1673ffffffffffffffffffffffffffffffffffffffff1681526020019081526020016000206040518060c00160405290816000820160009054906101000a900473ffffffffffffffffffffffffffffffffffffffff1673ffffffffffffffffffffffffffffffffffffffff1673ffffffffffffffffffffffffffffffffffffffff168152602001600182018054610ae890613f90565b80601f0160208091040260200160405190810160405280929190818152602001828054610b1490613f90565b8015610b615780601f10610b3657610100808354040283529160200191610b61565b820191906000526020600020905b815481529060010190602001808311610b4457829003601f168201915b505050505081526020016002820154815260200160038201805480602002602001604051908101604052809291908181526020016000905b82821015610c45578382906000526020600020018054610bb890613f90565b80601f0160208091040260200160405190810160405280929190818152602001828054610be490613f90565b8015610c315780601f10610c0657610100808354040283529160200191610c31565b820191906000526020600020905b815481529060010190602001808311610c1457829003601f168201915b505050505081526020019060010190610b99565b50505050815260200160048201805480602002602001604051908101604052809291908181526020016000905b82821015610e3957838290600052602060002090600402016040518060800160405290816000820160009054906101000a900473ffffffffffffffffffffffffffffffffffffffff1673ffffffffffffffffffffffffffffffffffffffff1673ffffffffffffffffffffffffffffffffffffffff168152602001600182018054610cfb90613f90565b80601f0160208091040260200160405190810160405280929190818152602001828054610d2790613f90565b8015610d745780601f10610d4957610100808354040283529160200191610d74565b820191906000526020600020905b815481529060010190602001808311610d5757829003601f168201915b50505050508152602001600282018054610d8d90613f90565b80601f0160208091040260200160405190810160405280929190818152602001828054610db990613f90565b8015610e065780601f10610ddb57610100808354040283529160200191610e06565b820191906000526020600020905b815481529060010190602001808311610de957829003601f168201915b505050505081526020016003820160009054906101000a900460ff16151515158152505081526020019060010190610c72565b505050508152602001600582015481525050828281518110610e84577f4e487b7100000000000000000000000000000000000000000000000000000000600052603260045260246000fd5b602002602001018190525060038181548110610ec9577f4e487b7100000000000000000000000000000000000000000000000000000000600052603260045260246000fd5b9060005260206000200160009054906101000a900473ffffffffffffffffffffffffffffffffffffffff16828281518110610f2d577f4e487b7100000000000000000000000000000000000000000000000000000000600052603260045260246000fd5b60200260200101516000019073ffffffffffffffffffffffffffffffffffffffff16908173ffffffffffffffffffffffffffffffffffffffff16815250508080610f7690613fc2565b9150506109c8565b508091505090565b60606000806060808573ffffffffffffffffffffffffffffffffffffffff163373ffffffffffffffffffffffffffffffffffffffff1614806110155750600260009054906101000a900473ffffffffffffffffffffffffffffffffffffffff1673ffffffffffffffffffffffffffffffffffffffff163373ffffffffffffffffffffffffffffffffffffffff16145b8061102657506110258633612e2e565b5b611065576040517f08c379a000000000000000000000000000000000000000000000000000000000815260040161105c90613c6b565b60405180910390fd5b60008060008873ffffffffffffffffffffffffffffffffffffffff1673ffffffffffffffffffffffffffffffffffffffff1681526020019081526020016000206040518060c00160405290816000820160009054906101000a900473ffffffffffffffffffffffffffffffffffffffff1673ffffffffffffffffffffffffffffffffffffffff1673ffffffffffffffffffffffffffffffffffffffff16815260200160018201805461111690613f90565b80601f016020809104026020016040519081016040528092919081815260200182805461114290613f90565b801561118f5780601f106111645761010080835404028352916020019161118f565b820191906000526020600020905b81548152906001019060200180831161117257829003601f168201915b505050505081526020016002820154815260200160038201805480602002602001604051908101604052809291908181526020016000905b828210156112735783829060005260206000200180546111e690613f90565b80601f016020809104026020016040519081016040528092919081815260200182805461121290613f90565b801561125f5780601f106112345761010080835404028352916020019161125f565b820191906000526020600020905b81548152906001019060200180831161124257829003601f168201915b5050505050815260200190600101906111c7565b50505050815260200160048201805480602002602001604051908101604052809291908181526020016000905b8282101561146757838290600052602060002090600402016040518060800160405290816000820160009054906101000a900473ffffffffffffffffffffffffffffffffffffffff1673ffffffffffffffffffffffffffffffffffffffff1673ffffffffffffffffffffffffffffffffffffffff16815260200160018201805461132990613f90565b80601f016020809104026020016040519081016040528092919081815260200182805461135590613f90565b80156113a25780601f10611377576101008083540402835291602001916113a2565b820191906000526020600020905b81548152906001019060200180831161138557829003601f168201915b505050505081526020016002820180546113bb90613f90565b80601f01602080910402602001604051908101604052809291908181526020018280546113e790613f90565b80156114345780601f1061140957610100808354040283529160200191611434565b820191906000526020600020905b81548152906001019060200180831161141757829003601f168201915b505050505081526020016003820160009054906101000a900460ff161515151581525050815260200190600101906112a0565b5050505081526020016005820154815250509050600081606001519050600082608001519050826020015183604001518460a0015184849750975097509750975050505091939590929450565b60008060003373ffffffffffffffffffffffffffffffffffffffff1673ffffffffffffffffffffffffffffffffffffffff168152602001908152602001600020600101805461150290613f90565b905014611544576040517f08c379a000000000000000000000000000000000000000000000000000000000815260040161153b90613ccb565b60405180910390fd5b816000803373ffffffffffffffffffffffffffffffffffffffff1673ffffffffffffffffffffffffffffffffffffffff1681526020019081526020016000206001019080519060200190611599929190613015565b50806000803373ffffffffffffffffffffffffffffffffffffffff1673ffffffffffffffffffffffffffffffffffffffff16815260200190815260200160002060020181905550426000803373ffffffffffffffffffffffffffffffffffffffff1673ffffffffffffffffffffffffffffffffffffffff168152602001908152602001600020600501819055506003339080600181540180825580915050600190039060005260206000200160009091909190916101000a81548173ffffffffffffffffffffffffffffffffffffffff021916908373ffffffffffffffffffffffffffffffffffffffff1602179055503373ffffffffffffffffffffffffffffffffffffffff167f096f893428730b9f440cde9930f6fbd450ce2d7ac1f2895f0d869da7376a36d183426040516116d1929190613bd3565b60405180910390a25050565b81600160003373ffffffffffffffffffffffffffffffffffffffff1673ffffffffffffffffffffffffffffffffffffffff16815260200190815260200160002060030160009054906101000a900460ff1661176d576040517f08c379a000000000000000000000000000000000000000000000000000000000815260040161176490613d4b565b60405180910390fd5b6117778133612e2e565b6117b6576040517f08c379a00000000000000000000000000000000000000000000000000000000081526004016117ad90613c8b565b60405180910390fd5b6000808473ffffffffffffffffffffffffffffffffffffffff1673ffffffffffffffffffffffffffffffffffffffff16815260200190815260200160002060030182908060018154018082558091505060019003906000526020600020016000909190919091509080519060200190611830929190613015565b508273ffffffffffffffffffffffffffffffffffffffff167f381664328a13775cdca4159b54873d48827358a58c62dac10944c743ecb7ad9b836040516118779190613bb1565b60405180910390a2505050565b600260009054906101000a900473ffffffffffffffffffffffffffffffffffffffff1673ffffffffffffffffffffffffffffffffffffffff163373ffffffffffffffffffffffffffffffffffffffff1614611914576040517f08c379a000000000000000000000000000000000000000000000000000000000815260040161190b90613ceb565b60405180910390fd5b6000600160008573ffffffffffffffffffffffffffffffffffffffff1673ffffffffffffffffffffffffffffffffffffffff168152602001908152602001600020600101805461196390613f90565b9050146119a5576040517f08c379a000000000000000000000000000000000000000000000000000000000815260040161199c90613d0b565b60405180910390fd5b81600160008573ffffffffffffffffffffffffffffffffffffffff1673ffffffffffffffffffffffffffffffffffffffff16815260200190815260200160002060010190805190602001906119fb929190613015565b5080600160008573ffffffffffffffffffffffffffffffffffffffff1673ffffffffffffffffffffffffffffffffffffffff1681526020019081526020016000206002019080519060200190611a52929190613015565b506000600160008573ffffffffffffffffffffffffffffffffffffffff1673ffffffffffffffffffffffffffffffffffffffff16815260200190815260200160002060030160006101000a81548160ff0219169083151502179055506004839080600181540180825580915050600190039060005260206000200160009091909190916101000a81548173ffffffffffffffffffffffffffffffffffffffff021916908373ffffffffffffffffffffffffffffffffffffffff1602179055508273ffffffffffffffffffffffffffffffffffffffff167f20481b8112b5bf4734f45a473c373db9df6a79ce946cdc0e7dbc22b4f7d7f98683604051611b579190613bb1565b60405180910390a2505050565b60008060003373ffffffffffffffffffffffffffffffffffffffff1673ffffffffffffffffffffffffffffffffffffffff1681526020019081526020016000206001018054611bb290613f90565b90501415611bf5576040517f08c379a0000000000000000000000000000000000000000000000000000000008152600401611bec90613cab565b60405180910390fd5b6000600160008373ffffffffffffffffffffffffffffffffffffffff1673ffffffffffffffffffffffffffffffffffffffff1681526020019081526020016000206001018054611c4490613f90565b90501415611c87576040517f08c379a0000000000000000000000000000000000000000000000000000000008152600401611c7e90613d6b565b60405180910390fd5b6000805b6000803373ffffffffffffffffffffffffffffffffffffffff1673ffffffffffffffffffffffffffffffffffffffff16815260200190815260200160002060040180549050811015611dd1578273ffffffffffffffffffffffffffffffffffffffff166000803373ffffffffffffffffffffffffffffffffffffffff1673ffffffffffffffffffffffffffffffffffffffff1681526020019081526020016000206004018281548110611d67577f4e487b7100000000000000000000000000000000000000000000000000000000600052603260045260246000fd5b906000526020600020906004020160000160009054906101000a900473ffffffffffffffffffffffffffffffffffffffff1673ffffffffffffffffffffffffffffffffffffffff161415611dbe5760019150611dd1565b8080611dc990613fc2565b915050611c8b565b508015611e13576040517f08c379a0000000000000000000000000000000000000000000000000000000008152600401611e0a90613d8b565b60405180910390fd5b81600160008473ffffffffffffffffffffffffffffffffffffffff1673ffffffffffffffffffffffffffffffffffffffff16815260200190815260200160002060000160006101000a81548173ffffffffffffffffffffffffffffffffffffffff021916908373ffffffffffffffffffffffffffffffffffffffff1602179055506000803373ffffffffffffffffffffffffffffffffffffffff1673ffffffffffffffffffffffffffffffffffffffff168152602001908152602001600020600401600160008473ffffffffffffffffffffffffffffffffffffffff1673ffffffffffffffffffffffffffffffffffffffff16815260200190815260200160002090806001815401808255809150506001900390600052602060002090600402016000909190919091506000820160009054906101000a900473ffffffffffffffffffffffffffffffffffffffff168160000160006101000a81548173ffffffffffffffffffffffffffffffffffffffff021916908373ffffffffffffffffffffffffffffffffffffffff1602179055506001820181600101908054611fb890613f90565b611fc392919061309b565b506002820181600201908054611fd890613f90565b611fe392919061309b565b506003820160009054906101000a900460ff168160030160006101000a81548160ff02191690831515021790555050505050565b60016020528060005260406000206000915090508060000160009054906101000a900473ffffffffffffffffffffffffffffffffffffffff169080600101805461206090613f90565b80601f016020809104026020016040519081016040528092919081815260200182805461208c90613f90565b80156120d95780601f106120ae576101008083540402835291602001916120d9565b820191906000526020600020905b8154815290600101906020018083116120bc57829003601f168201915b5050505050908060020180546120ee90613f90565b80601f016020809104026020016040519081016040528092919081815260200182805461211a90613f90565b80156121675780601f1061213c57610100808354040283529160200191612167565b820191906000526020600020905b81548152906001019060200180831161214a57829003601f168201915b5050505050908060030160009054906101000a900460ff16905084565b6060600060048054905067ffffffffffffffff8111156121cd577f4e487b7100000000000000000000000000000000000000000000000000000000600052604160045260246000fd5b60405190808252806020026020018201604052801561220657816020015b6121f3612f89565b8152602001906001900390816121eb5790505b50905060005b60048054905081101561258f576001600060048381548110612257577f4e487b7100000000000000000000000000000000000000000000000000000000600052603260045260246000fd5b9060005260206000200160009054906101000a900473ffffffffffffffffffffffffffffffffffffffff1673ffffffffffffffffffffffffffffffffffffffff1673ffffffffffffffffffffffffffffffffffffffff1681526020019081526020016000206040518060800160405290816000820160009054906101000a900473ffffffffffffffffffffffffffffffffffffffff1673ffffffffffffffffffffffffffffffffffffffff1673ffffffffffffffffffffffffffffffffffffffff16815260200160018201805461232d90613f90565b80601f016020809104026020016040519081016040528092919081815260200182805461235990613f90565b80156123a65780601f1061237b576101008083540402835291602001916123a6565b820191906000526020600020905b81548152906001019060200180831161238957829003601f168201915b505050505081526020016002820180546123bf90613f90565b80601f01602080910402602001604051908101604052809291908181526020018280546123eb90613f90565b80156124385780601f1061240d57610100808354040283529160200191612438565b820191906000526020600020905b81548152906001019060200180831161241b57829003601f168201915b505050505081526020016003820160009054906101000a900460ff161515151581525050828281518110612495577f4e487b7100000000000000000000000000000000000000000000000000000000600052603260045260246000fd5b6020026020010181905250600481815481106124da577f4e487b7100000000000000000000000000000000000000000000000000000000600052603260045260246000fd5b9060005260206000200160009054906101000a900473ffffffffffffffffffffffffffffffffffffffff1682828151811061253e577f4e487b7100000000000000000000000000000000000000000000000000000000600052603260045260246000fd5b60200260200101516000019073ffffffffffffffffffffffffffffffffffffffff16908173ffffffffffffffffffffffffffffffffffffffff1681525050808061258790613fc2565b91505061220c565b508091505090565b60608173ffffffffffffffffffffffffffffffffffffffff163373ffffffffffffffffffffffffffffffffffffffff1614806126205750600260009054906101000a900473ffffffffffffffffffffffffffffffffffffffff1673ffffffffffffffffffffffffffffffffffffffff163373ffffffffffffffffffffffffffffffffffffffff16145b8061263157506126308233612e2e565b5b612670576040517f08c379a000000000000000000000000000000000000000000000000000000000815260040161266790613d2b565b60405180910390fd5b60008060008473ffffffffffffffffffffffffffffffffffffffff1673ffffffffffffffffffffffffffffffffffffffff1681526020019081526020016000206040518060c00160405290816000820160009054906101000a900473ffffffffffffffffffffffffffffffffffffffff1673ffffffffffffffffffffffffffffffffffffffff1673ffffffffffffffffffffffffffffffffffffffff16815260200160018201805461272190613f90565b80601f016020809104026020016040519081016040528092919081815260200182805461274d90613f90565b801561279a5780601f1061276f5761010080835404028352916020019161279a565b820191906000526020600020905b81548152906001019060200180831161277d57829003601f168201915b505050505081526020016002820154815260200160038201805480602002602001604051908101604052809291908181526020016000905b8282101561287e5783829060005260206000200180546127f190613f90565b80601f016020809104026020016040519081016040528092919081815260200182805461281d90613f90565b801561286a5780601f1061283f5761010080835404028352916020019161286a565b820191906000526020600020905b81548152906001019060200180831161284d57829003601f168201915b5050505050815260200190600101906127d2565b50505050815260200160048201805480602002602001604051908101604052809291908181526020016000905b82821015612a7257838290600052602060002090600402016040518060800160405290816000820160009054906101000a900473ffffffffffffffffffffffffffffffffffffffff1673ffffffffffffffffffffffffffffffffffffffff1673ffffffffffffffffffffffffffffffffffffffff16815260200160018201805461293490613f90565b80601f016020809104026020016040519081016040528092919081815260200182805461296090613f90565b80156129ad5780601f10612982576101008083540402835291602001916129ad565b820191906000526020600020905b81548152906001019060200180831161299057829003601f168201915b505050505081526020016002820180546129c690613f90565b80601f01602080910402602001604051908101604052809291908181526020018280546129f290613f90565b8015612a3f5780601f10612a1457610100808354040283529160200191612a3f565b820191906000526020600020905b815481529060010190602001808311612a2257829003601f168201915b505050505081526020016003820160009054906101000a900460ff161515151581525050815260200190600101906128ab565b5050505081526020016005820154815250509050600081608001515190508067ffffffffffffffff811115612ad0577f4e487b7100000000000000000000000000000000000000000000000000000000600052604160045260246000fd5b604051908082528060200260200182016040528015612b0357816020015b6060815260200190600190039081612aee5790505b50925060005b81811015612c8157600083608001518281518110612b50577f4e487b7100000000000000000000000000000000000000000000000000000000600052603260045260246000fd5b6020026020010151600001519050600160008273ffffffffffffffffffffffffffffffffffffffff1673ffffffffffffffffffffffffffffffffffffffff1681526020019081526020016000206001018054612bab90613f90565b80601f0160208091040260200160405190810160405280929190818152602001828054612bd790613f90565b8015612c245780601f10612bf957610100808354040283529160200191612c24565b820191906000526020600020905b815481529060010190602001808311612c0757829003601f168201915b5050505050858381518110612c62577f4e487b7100000000000000000000000000000000000000000000000000000000600052603260045260246000fd5b6020026020010181905250508080612c7990613fc2565b915050612b09565b505050919050565b600260009054906101000a900473ffffffffffffffffffffffffffffffffffffffff1673ffffffffffffffffffffffffffffffffffffffff163373ffffffffffffffffffffffffffffffffffffffff1614612d19576040517f08c379a0000000000000000000000000000000000000000000000000000000008152600401612d1090613ceb565b60405180910390fd5b6000600160008373ffffffffffffffffffffffffffffffffffffffff1673ffffffffffffffffffffffffffffffffffffffff1681526020019081526020016000206001018054612d6890613f90565b90501415612dab576040517f08c379a0000000000000000000000000000000000000000000000000000000008152600401612da290613d6b565b60405180910390fd5b60018060008373ffffffffffffffffffffffffffffffffffffffff1673ffffffffffffffffffffffffffffffffffffffff16815260200190815260200160002060030160006101000a81548160ff02191690831515021790555050565b600260009054906101000a900473ffffffffffffffffffffffffffffffffffffffff1681565b600080600090505b6000808573ffffffffffffffffffffffffffffffffffffffff1673ffffffffffffffffffffffffffffffffffffffff16815260200190815260200160002060040180549050811015612f7d578273ffffffffffffffffffffffffffffffffffffffff166000808673ffffffffffffffffffffffffffffffffffffffff1673ffffffffffffffffffffffffffffffffffffffff1681526020019081526020016000206004018281548110612f12577f4e487b7100000000000000000000000000000000000000000000000000000000600052603260045260246000fd5b906000526020600020906004020160000160009054906101000a900473ffffffffffffffffffffffffffffffffffffffff1673ffffffffffffffffffffffffffffffffffffffff161415612f6a576001915050612f83565b8080612f7590613fc2565b915050612e36565b50600090505b92915050565b6040518060800160405280600073ffffffffffffffffffffffffffffffffffffffff16815260200160608152602001606081526020016000151581525090565b6040518060c00160405280600073ffffffffffffffffffffffffffffffffffffffff16815260200160608152602001600081526020016060815260200160608152602001600081525090565b82805461302190613f90565b90600052602060002090601f016020900481019282613043576000855561308a565b82601f1061305c57805160ff191683800117855561308a565b8280016001018555821561308a579182015b8281111561308957825182559160200191906001019061306e565b5b5090506130979190613128565b5090565b8280546130a790613f90565b90600052602060002090601f0160209004810192826130c95760008555613117565b82601f106130da5780548555613117565b8280016001018555821561311757600052602060002091601f016020900482015b828111156131165782548255916001019190600101906130fb565b5b5090506131249190613128565b5090565b5b80821115613141576000816000905550600101613129565b5090565b600061315861315384613ddc565b613dab565b90508281526020810184848401111561317057600080fd5b61317b848285613f4e565b509392505050565b600081359050613192816140a9565b92915050565b600082601f8301126131a957600080fd5b81356131b9848260208601613145565b91505092915050565b6000813590506131d1816140c0565b92915050565b6000602082840312156131e957600080fd5b60006131f784828501613183565b91505092915050565b6000806040838503121561321357600080fd5b600061322185828601613183565b925050602083013567ffffffffffffffff81111561323e57600080fd5b61324a85828601613198565b9150509250929050565b60008060006060848603121561326957600080fd5b600061327786828701613183565b935050602084013567ffffffffffffffff81111561329457600080fd5b6132a086828701613198565b925050604084013567ffffffffffffffff8111156132bd57600080fd5b6132c986828701613198565b9150509250925092565b600080604083850312156132e657600080fd5b600083013567ffffffffffffffff81111561330057600080fd5b61330c85828601613198565b925050602061331d858286016131c2565b9150509250929050565b600061333383836135e8565b905092915050565b60006133478383613972565b905092915050565b600061335b83836139dc565b905092915050565b61336c81613f06565b82525050565b61337b81613f06565b82525050565b600061338c82613e3c565b6133968185613e8f565b9350836020820285016133a885613e0c565b8060005b858110156133e457848403895281516133c58582613327565b94506133d083613e68565b925060208a019950506001810190506133ac565b50829750879550505050505092915050565b600061340182613e3c565b61340b8185613ea0565b93508360208202850161341d85613e0c565b8060005b85811015613459578484038952815161343a8582613327565b945061344583613e68565b925060208a01995050600181019050613421565b50829750879550505050505092915050565b600061347682613e47565b6134808185613eb1565b93508360208202850161349285613e1c565b8060005b858110156134ce57848403895281516134af858261333b565b94506134ba83613e75565b925060208a01995050600181019050613496565b50829750879550505050505092915050565b60006134eb82613e47565b6134f58185613ec2565b93508360208202850161350785613e1c565b8060005b858110156135435784840389528151613524858261333b565b945061352f83613e75565b925060208a0199505060018101905061350b565b50829750879550505050505092915050565b600061356082613e52565b61356a8185613ed3565b93508360208202850161357c85613e2c565b8060005b858110156135b85784840389528151613599858261334f565b94506135a483613e82565b925060208a01995050600181019050613580565b50829750879550505050505092915050565b6135d381613f18565b82525050565b6135e281613f18565b82525050565b60006135f382613e5d565b6135fd8185613ee4565b935061360d818560208601613f5d565b61361681614098565b840191505092915050565b600061362c82613e5d565b6136368185613ef5565b9350613646818560208601613f5d565b61364f81614098565b840191505092915050565b6000613667602783613ef5565b91507f556e617574686f72697a65642061636365737320746f2070617469656e74207260008301527f65636f7264732e000000000000000000000000000000000000000000000000006020830152604082019050919050565b60006136cd602783613ef5565b91507f446f63746f72206e6f7420617574686f72697a656420666f722074686973207060008301527f617469656e742e000000000000000000000000000000000000000000000000006020830152604082019050919050565b6000613733601783613ef5565b91507f50617469656e7420646f6573206e6f742065786973742e0000000000000000006000830152602082019050919050565b6000613773601b83613ef5565b91507f50617469656e7420616c726561647920726567697374657265642e00000000006000830152602082019050919050565b60006137b3602383613ef5565b91507f4f6e6c792061646d696e2063616e20706572666f726d2074686973206163746960008301527f6f6e2e00000000000000000000000000000000000000000000000000000000006020830152604082019050919050565b6000613819601a83613ef5565b91507f446f63746f7220616c726561647920726567697374657265642e0000000000006000830152602082019050919050565b6000613859602a83613ef5565b91507f556e617574686f72697a65642061636365737320746f20646f63746f7220696e60008301527f666f726d6174696f6e2e000000000000000000000000000000000000000000006020830152604082019050919050565b60006138bf601783613ef5565b91507f446f63746f72206973206e6f742076657269666965642e0000000000000000006000830152602082019050919050565b60006138ff601683613ef5565b91507f446f63746f7220646f6573206e6f742065786973742e000000000000000000006000830152602082019050919050565b600061393f601a83613ef5565b91507f446f63746f7220616c726561647920617574686f72697a65642e0000000000006000830152602082019050919050565b600060808301600083015161398a6000860182613363565b50602083015184820360208601526139a282826135e8565b915050604083015184820360408601526139bc82826135e8565b91505060608301516139d160608601826135ca565b508091505092915050565b600060c0830160008301516139f46000860182613363565b5060208301518482036020860152613a0c82826135e8565b9150506040830151613a216040860182613a73565b5060608301518482036060860152613a398282613381565b91505060808301518482036080860152613a53828261346b565b91505060a0830151613a6860a0860182613a73565b508091505092915050565b613a7c81613f44565b82525050565b613a8b81613f44565b82525050565b6000602082019050613aa66000830184613372565b92915050565b6000608082019050613ac16000830187613372565b8181036020830152613ad38186613621565b90508181036040830152613ae78185613621565b9050613af660608301846135d9565b95945050505050565b6000608082019050613b146000830187613372565b8181036020830152613b268186613621565b9050613b356040830185613a82565b613b426060830184613a82565b95945050505050565b60006020820190508181036000830152613b6581846133f6565b905092915050565b60006020820190508181036000830152613b8781846134e0565b905092915050565b60006020820190508181036000830152613ba98184613555565b905092915050565b60006020820190508181036000830152613bcb8184613621565b905092915050565b60006040820190508181036000830152613bed8185613621565b9050613bfc6020830184613a82565b9392505050565b600060a0820190508181036000830152613c1d8188613621565b9050613c2c6020830187613a82565b613c396040830186613a82565b8181036060830152613c4b81856133f6565b90508181036080830152613c5f81846134e0565b90509695505050505050565b60006020820190508181036000830152613c848161365a565b9050919050565b60006020820190508181036000830152613ca4816136c0565b9050919050565b60006020820190508181036000830152613cc481613726565b9050919050565b60006020820190508181036000830152613ce481613766565b9050919050565b60006020820190508181036000830152613d04816137a6565b9050919050565b60006020820190508181036000830152613d248161380c565b9050919050565b60006020820190508181036000830152613d448161384c565b9050919050565b60006020820190508181036000830152613d64816138b2565b9050919050565b60006020820190508181036000830152613d84816138f2565b9050919050565b60006020820190508181036000830152613da481613932565b9050919050565b6000604051905081810181811067ffffffffffffffff82111715613dd257613dd1614069565b5b8060405250919050565b600067ffffffffffffffff821115613df757613df6614069565b5b601f19601f8301169050602081019050919050565b6000819050602082019050919050565b6000819050602082019050919050565b6000819050602082019050919050565b600081519050919050565b600081519050919050565b600081519050919050565b600081519050919050565b6000602082019050919050565b6000602082019050919050565b6000602082019050919050565b600082825260208201905092915050565b600082825260208201905092915050565b600082825260208201905092915050565b600082825260208201905092915050565b600082825260208201905092915050565b600082825260208201905092915050565b600082825260208201905092915050565b6000613f1182613f24565b9050919050565b60008115159050919050565b600073ffffffffffffffffffffffffffffffffffffffff82169050919050565b6000819050919050565b82818337600083830152505050565b60005b83811015613f7b578082015181840152602081019050613f60565b83811115613f8a576000848401525b50505050565b60006002820490506001821680613fa857607f821691505b60208210811415613fbc57613fbb61403a565b5b50919050565b6000613fcd82613f44565b91507fffffffffffffffffffffffffffffffffffffffffffffffffffffffffffffffff82141561400057613fff61400b565b5b600182019050919050565b7f4e487b7100000000000000000000000000000000000000000000000000000000600052601160045260246000fd5b7f4e487b7100000000000000000000000000000000000000000000000000000000600052602260045260246000fd5b7f4e487b7100000000000000000000000000000000000000000000000000000000600052604160045260246000fd5b6000601f19601f8301169050919050565b6140b281613f06565b81146140bd57600080fd5b50565b6140c981613f44565b81146140d457600080fd5b5056fea2646970667358221220f40b61cce2246e6d4bc2790530563efb648863417dde101ec4925b578bb23c0764736f6c63430008000033",
  "immutableReferences": {},
  "source": "// SPDX-License-Identifier: MIT\npragma solidity ^0.8.0;\n\ncontract PatientDataManagement {\n    struct Doctor {\n        address doctorAddress;\n        string name;\n        string specialization;\n        bool isVerified;\n    }\n    struct Patient {\n        address patientAddress;\n        string name;\n        uint256 age;\n        string[] medicalRecords;\n        Doctor[] authorizedDoctors;\n        uint256 registeredAt; // Timestamp of registration\n    }\n    \n    mapping(address => Patient) public patients;\n    mapping(address => Doctor) public doctors;\n    address public admin;\n    address[] private patientAddresses; // Array to keep track of all registered patient addresses\n    address[] private doctorAddresses; // Array to keep track of all registered doctor addresses\n\n    event PatientRegistered(address indexed patientAddress, string name, uint256 registeredAt);\n    event DoctorRegistered(address indexed doctorAddress, string name);\n    event MedicalRecordAdded(address indexed patientAddress, string record);\n    \n    constructor() {\n        admin = msg.sender;\n    }\n    \n    modifier onlyAdmin() {\n        require(msg.sender == admin, \"Only admin can perform this action.\");\n        _;\n    }\n    \n    modifier onlyAuthorizedDoctor(address patientAddress) {\n        require(doctors[msg.sender].isVerified, \"Doctor is not verified.\");\n        require(isAuthorizedDoctorForPatient(patientAddress, msg.sender), \"Doctor not authorized for this patient.\");\n        _;\n    }\n\n    function registerPatient(string memory _name, uint256 _age) public {\n        require(bytes(patients[msg.sender].name).length == 0, \"Patient already registered.\");\n        \n        patients[msg.sender].name = _name;\n        patients[msg.sender].age = _age;\n        patients[msg.sender].registeredAt = block.timestamp; // Set the registration timestamp\n        patientAddresses.push(msg.sender); // Store the patient's address\n        emit PatientRegistered(msg.sender, _name, block.timestamp);\n    }\n    \n    function registerDoctor(address _doctorAddress, string memory _name, string memory _specialization) public onlyAdmin {\n        require(bytes(doctors[_doctorAddress].name).length == 0, \"Doctor already registered.\");\n        \n        doctors[_doctorAddress].name = _name;\n        doctors[_doctorAddress].specialization = _specialization;\n        doctors[_doctorAddress].isVerified = false;\n        doctorAddresses.push(_doctorAddress); // Store the doctor's address\n        emit DoctorRegistered(_doctorAddress, _name);\n    }\n    \n    function verifyDoctor(address _doctorAddress) public onlyAdmin {\n        require(bytes(doctors[_doctorAddress].name).length != 0, \"Doctor does not exist.\");\n        \n        doctors[_doctorAddress].isVerified = true;\n    }\n    \n    function authorizeDoctor(address _doctorAddress) public {\n        // Ensure the patient exists\n        require(bytes(patients[msg.sender].name).length != 0, \"Patient does not exist.\");\n        // Ensure the doctor exists\n        require(bytes(doctors[_doctorAddress].name).length != 0, \"Doctor does not exist.\");\n\n        // Check if the doctor is already authorized\n        bool alreadyAuthorized = false;\n        for (uint i = 0; i < patients[msg.sender].authorizedDoctors.length; i++) {\n            if (patients[msg.sender].authorizedDoctors[i].doctorAddress == _doctorAddress) {\n                alreadyAuthorized = true;\n                break; // Exit the loop early if the doctor is already authorized\n            }\n        }\n\n        // If the doctor is already authorized, skip adding\n        if (alreadyAuthorized) {\n            revert(\"Doctor already authorized.\");\n        }\n\n        // Add the doctor to the authorizedDoctors list\n        doctors[_doctorAddress].doctorAddress = _doctorAddress;\n        patients[msg.sender].authorizedDoctors.push(doctors[_doctorAddress]);\n    }\n    \n    function addMedicalRecord(address _patientAddress, string memory _record) public onlyAuthorizedDoctor(_patientAddress) {\n        patients[_patientAddress].medicalRecords.push(_record);\n        emit MedicalRecordAdded(_patientAddress, _record);\n    }\n    \n    function getPatientRecords(address _patientAddress)\n        public\n        view\n        returns (\n            string memory patientName,\n            uint256 patientAge,\n            uint256 registeredAt,\n            string[] memory medicalRecords,\n            Doctor[] memory authorizedDoctors\n        )\n    {\n        require(\n            msg.sender == _patientAddress || \n            msg.sender == admin ||\n            isAuthorizedDoctorForPatient(_patientAddress, msg.sender),\n            \"Unauthorized access to patient records.\"\n        );\n        \n        Patient memory patient = patients[_patientAddress];\n        \n        // Assign the values to local variables to return\n        string[] memory records = patient.medicalRecords;\n        Doctor[] memory doctorsList = patient.authorizedDoctors;\n\n        return (\n            patient.name,\n            patient.age,\n            patient.registeredAt,\n            records,\n            doctorsList\n        );\n    }\n\n    function getAuthorizedDoctorNames(address _patientAddress)\n        public\n        view\n        returns (string[] memory doctorNames)\n    {\n        require(\n            msg.sender == _patientAddress || \n            msg.sender == admin ||\n            isAuthorizedDoctorForPatient(_patientAddress, msg.sender),\n            \"Unauthorized access to doctor information.\"\n        );\n        \n        Patient memory patient = patients[_patientAddress];\n        uint256 length = patient.authorizedDoctors.length;\n        doctorNames = new string[](length);\n        \n        for (uint256 i = 0; i < length; i++) {\n            address doctorAddress = patient.authorizedDoctors[i].doctorAddress;\n            doctorNames[i] = doctors[doctorAddress].name;\n        }\n        \n        return doctorNames;\n    }\n    \n    function isAuthorizedDoctorForPatient(address _patientAddress, address _doctorAddress) internal view returns (bool) {\n        for (uint i = 0; i < patients[_patientAddress].authorizedDoctors.length; i++) {\n            if (patients[_patientAddress].authorizedDoctors[i].doctorAddress == _doctorAddress) {\n                return true;\n            }\n        }\n        return false;\n    }\n    \n    // New function to return all registered patients\n    function getAllPatients() public view returns (Patient[] memory) {\n        Patient[] memory allPatients = new Patient[](patientAddresses.length);\n        \n        for (uint i = 0; i < patientAddresses.length; i++) {\n            allPatients[i] = patients[patientAddresses[i]];\n            allPatients[i].patientAddress = patientAddresses[i];\n        }\n        \n        return allPatients;\n    }\n\n    // New function to return all verified doctors\n    function getVerifiedDoctors() public view returns (Doctor[] memory) {\n        uint256 verifiedCount = 0;\n        \n        // Count how many verified doctors there are\n        for (uint i = 0; i < doctorAddresses.length; i++) {\n            if (doctors[doctorAddresses[i]].isVerified) {\n                verifiedCount++;\n            }\n        }\n\n        // Create an array to store verified doctors\n        Doctor[] memory verifiedDoctors = new Doctor[](verifiedCount);\n        uint256 index = 0;\n\n        // Populate the array with verified doctors\n        for (uint i = 0; i < doctorAddresses.length; i++) {\n            if (doctors[doctorAddresses[i]].isVerified) {\n                verifiedDoctors[index] = doctors[doctorAddresses[i]];\n                verifiedDoctors[index].doctorAddress = doctorAddresses[i];\n                index++;\n            }\n        }\n\n        return verifiedDoctors;\n    }\n\n    // New function to return all doctors\n    function getDoctors() public view returns (Doctor[] memory) {\n\n        // Create an array to store allDoctors\n        Doctor[] memory allDoctors = new Doctor[](doctorAddresses.length);\n\n        for (uint i = 0; i < doctorAddresses.length; i++) {\n                allDoctors[i] = doctors[doctorAddresses[i]];\n                allDoctors[i].doctorAddress = doctorAddresses[i];\n        }\n\n        return allDoctors;\n    }\n}\n",
  "sourcePath": "/Users/I526537/bits/patient-data-blockchain/backend/blockchain/contracts/PatientDataManagement.sol",
  "compiler": {
    "name": "solc",
    "version": "0.8.0+commit.c7dfd78e.Emscripten.clang"
  },
  "schemaVersion": "3.4.16",
  "updatedAt": "2024-11-18T08:39:39.521Z",
  "networkType": "ethereum",
  "devdoc": {
    "kind": "dev",
    "methods": {},
    "version": 1
  },
  "userdoc": {
    "kind": "user",
    "methods": {},
    "version": 1
  }
}